:10000000801500208D1600007B4200006116000064
:10001000611600006116000061160000000000007B
:10002000000000000000000000000000C9120000F5
:10003000611600000000000075120000611600004B
:100040007913000079130000791300007913000080
:100050007913000079130000791300007913000070
:100060007913000079130000791300007913000060
:100070007913000079130000791300007913000050
:100080007913000079130000791300007913000040
:100090007913000079130000791300007913000030
:1000A0007913000079130000791300007913000020
:1000B0007913000079130000791300007913000010
:1000C0007913000079130000791300007913000000
:0C00D00079130000791300007913000080
:1000DC0053B94AB9002908BF00281CBF4FF0FF31A3
:1000EC004FF0FF3000F00CB8ADF1080C6DE904CE08
:1000FC0000F008F8DDF804E0DDE9022304B07047F5
:10010C00704700BF2DE9F04786468C460846089E8E
:10011C00154674461946002B40F0C2808542B2FA4F
:10012C0082F245D94AB1C2F1200300FA02FC2EFA40
:10013C0003F3954043EA0C0C94404FEA154EA8B2D9
:10014C00BCFBFEF8230C0EFB18CC08FB00F943EAB1
:10015C000C43994528D9EB1808F1FF3704D299457F
:10016C0002D9A8F102072B44A3EB0903A4B2B3FBF9
:10017C00FEFC0EFB1C330CFB00F044EA0344A042D3
:10018C0014D92C190CF1FF3304D2A04202D9ACF1D2
:10019C0002032C44241A43EA07401EB1D440002326
:1001AC0034607360BDE8F0874746DDE76346F1E7EE
:1001BC0092BB431B01214FEA154EAFB2B3FBFEFCC1
:1001CC00200C0EFB1C330CFB07F840EA034398454C
:1001DC0062D9EB180CF1FF3004D2984502D9ACF17E
:1001EC0002002B44A3EB0803A4B2B3FBFEFC0EFBF2
:1001FC001C330CFB07F744EA0344A7424ED92C19D5
:10020C000CF1FF3304D2A74202D9ACF102032C4407
:10021C00E41B43EA0040C0E7C2F1200320FA03F1DB
:10022C00954090402EFA03F303434FEA154EAFB2BC
:10023C00B1FBFEFC0EFB1C10190C0CFB07F841EA81
:10024C000041884504FA02F422D969180CF1FF30F8
:10025C0004D2884502D9ACF102002944A1EB080173
:10026C009BB2B1FBFEFC0EFB1C110CFB07F743EA27
:10027C0001439F420ED9EB180CF1FF3104D29F427F
:10028C0002D9ACF102012B44DB1B41EA004192E79D
:10029C006046E3E76146F7E76046A3E76346B7E7E6
:1002AC00834206D916B9002108467BE7C6E900E06F
:1002BC00F9E7B3FA83F78FB9834201D3724508D8B3
:1002CC00BEEB020460EB030301209C461EB9002127
:1002DC0068E73846FAE7C6E9004CF8E7C7F1200CA6
:1002EC00BB4022FA0CF41C432EFA0CF120FA0CF34E
:1002FC00B84001434FEA14490EFA07F5B3FBF9F87D
:10030C001FFA84FE09FB18300B0C08FB0EFA43EAAB
:10031C0000439A4502FA07F240D9E31808F1FF307E
:10032C0004D29A4502D9A8F102002344A3EB0A0394
:10033C0089B2B3FBF9F809FB183308FB0EFE41EA4E
:10034C0003418E452CD9611808F1FF3304D28E4538
:10035C0002D9A8F10203214443EA0040A0FB029811
:10036C00A1EB0E014145CE46434602D306D14D4585
:10037C0004D2B9EB020E68EB04030138002EA6D0B0
:10038C00B5EB0E0261EB030101FA0CFC22FA07F348
:10039C004CEA0303F940C6E9003198E74046C5E74B
:1003AC004346D9E7F8B5084F15460024012606FA4E
:1003BC0004F32B4203D02146384601F0BFFA013436
:1003CC00112CF4D1F8BD00BFE44C000001460348E9
:1003DC008368DB690BB1012218477047DC490000C8
:1003EC0038B5424C204604F0BEF900287CD020469B
:1003FC0004F0B9F9002877D03D493E4803F0AAFD36
:10040C00002871DB3A493C4803F0A4FD00286BDB63
:10041C003A484FF4803103F09DFD002864DB3848E6
:10042C004FF4803103F096FD00285DDB35484FF426
:10043C00803103F08FFD002856DB33484FF48031B8
:10044C0003F088FD00284FDB2C48304D03F09FFD56
:10045C002B4803F09CFD2B4803F099FD2A4803F030
:10046C0096FD2B484FF4005383604560FFF7AEFFB9
:10047C002468284821460D2203F0A1FD26484FF49C
:10048C00804383604560FFF7A1FF21460E2221487F
:10049C0003F095FD21484FF4004383604560FFF75E
:1004AC0095FF21460F221B4803F089FD1C484FF491
:1004BC00803345608360FFF789FF214615480D4C5A
:1004CC000D4D102203F07BFD204603F058FD002853
:1004DC000ADB284603F053FD002805DB00214FF40E
:1004EC00803003F057FBEFE7002038BDDC490000FB
:1004FC0001000200E04B0000D84B0000D04B000084
:10050C00C84B0000C04B0000B84B0000B10300000A
:10051C00FC010020FD4C0000F0010020E401002053
:10052C00D8010020014B1B68184700BF00000020B9
:10053C00014B1860704700BF0000002007B50B4648
:10054C00002102460091034800F014F903B05DF855
:10055C0004FB00BF310500002DE9F047058B044674
:10056C002807904611D4022905F0070540F0CD80EC
:10057C00204603F03BFD78B10138218B042811D8BB
:10058C00DFE800F0C3106D85950001290CBF45F024
:10059C00100545F02005258388F31188BFF36F8F74
:1005AC00BDE8F08701F0070AAA4500F0A6800027F5
:1005BC00B9463E46A368002B00F0BD8041F008010F
:1005CC00218388F31188BFF36F8FA168002900F095
:1005DC00BB800D68002900F0B780D1F80480334649
:1005EC0052462046C047002D76D02B6829461D4622
:1005FC00F0E701F007035A1F012A1BD8002221F053
:10060C000701062B276889B2C4E9002209D13B46B1
:10061C0003E0628B013262831B68002BF9D141F03D
:10062C0002012183204603F0E1FC00287BD041F03D
:10063C00200177E0042B0AD121F0070189B2218334
:10064C00204603F0D3FC10B141F020012183218B13
:10065C0001F0070AAA4550D00027B946AAE723693A
:10066C0021F0070141F00601062DD3F800902183FB
:10067C002DD1B9F1000F40D041F00801218388F34E
:10068C001188BFF36F8F3A492046C84729E021F003
:10069C000701236941F0040189B2042DD3F80490B9
:1006AC002183E6D000273E464FF0040A82E721F072
:1006BC000701236941F0050189B2052DD3F8089093
:1006CC002183D6D000273E464FF0050A72E700275B
:1006DC003E464FF0060A6DE72B4687E7B9F1000F4F
:1006EC00D1D14FF02003EFF3118883F31288BFF3BD
:1006FC006F8F238B23F008032383258BEA062ED5DB
:10070C0025F01003238305F007056669218B002E65
:10071C00BFF66FAF00232768C4E9003321F007014F
:10072C0041F001012183218B01F0070AAA454FF00A
:10073C0000097FF43FAF002F9BD041F008012183CB
:10074C0088F31188BFF36F8F002FC7D03D683946EF
:10075C0033465246204603F075FC2F46F4E7AB06B1
:10076C007FF51AAF25F02003238305F00705FFE67C
:10077C007D4000002DE9F04F814695B08B46174621
:10078C001C460025387808B9284658E37B1C2528D8
:10079C00039306D05946C8470028C0F25083013550
:1007AC00FBE1182200210EA803F08DFD7B78252B90
:1007BC007DD00023781C98469E469C461E460146DA
:1007CC0010F8012B2B2A00F0A18000F29880202A2F
:1007DC0000F09F80232A00F09F802BB19DF84030C1
:1007EC0043F040038DF84030B8F1000F05D09DF870
:1007FC00403043F020038DF84030BEF1000F05D09F
:10080C009DF8403043F010038DF84030BCF1000FE0
:10081C0005D09DF8403043F008038DF840302EB1E0
:10082C009DF8403043F004038DF840309DF8403083
:10083C0003F04400442803D16FF386138DF8403045
:10084C009DF840302A2A43F080038DF840307FD148
:10085C009DF8412042F001024B1C8DF841201A7882
:10086C002E2A9DF841200CBF0121002161F3410289
:10087C008DF8412078D15A782A2A6ED00133002283
:10088C004FF00A0C194611F8010BA0F13006092E95
:10089C0040F295809DF840101292C1F3400040EA5E
:1008AC00D2700A4660F341028DF840205CE0BA1C1D
:1008BC0003928DF843309DF84130DA0740F12E81D8
:1008CC0054F8048BB8F1000F07DA9DF8402042F081
:1008DC0004028DF84020C8F100085E0740F1278122
:1008EC0054F804ABBAF1000F80F226819DF8413028
:1008FC006FF341038DF841304FF0FF3A1CE12D2A84
:10090C000DD0302A7FF469AF012358E74FF0010C6A
:10091C0055E74FF0010E52E74FF001084FE7012663
:10092C004DE70EFB0262303A0346184610F8016B95
:10093C00A6F1300CBCF1090FF3D999428FD09DF878
:10094C0040101192D20F62F341018DF8401086E7EE
:10095C000B4600224FF00A0EE7E79DF8412042F0CB
:10096C0004028DF8412002331A786C2A47D02BD818
:10097C00682A31D06A2A4BD04C2A51D01A4612F828
:10098C00013B0392782B9DF841208DF8433000F207
:10099C00BE806D2B51D8692B00F2B980572B67D8CC
:1009AC00412B03D0453B022B00F2B1809DF8423025
:1009BC00042262F302038DF84230012373E00CFB36
:1009CC000202303A0B465DE7742A25D07A2AD5D13B
:1009DC009DF8412006210CE05A78682A9DF84120A8
:1009EC0006D1012161F3C6028DF841200233C5E71F
:1009FC00022161F3C6028DF841200133BEE75A781B
:100A0C006C2A9DF8412001D10421EBE70321F0E78A
:100A1C009DF841200521ECE79DF841200721E8E7EE
:100A2C00BDF8402022F4F04222F0020242F480424F
:100A3C0042F00202ADF84020DFE76E3BD9B2012351
:100A4C008B4040F282410B4237D113F0240F51D12D
:100A5C00D8075CD59DF84230032161F302038DF871
:100A6C00423002F07803A3F140014B424B411AE0B3
:100A7C00A3F15801C9B2012000FA01F111F4624F3F
:100A8C0094D140F6010631421DD111F4043F3ED001
:100A9C009DF8423060F3020302F07802402A8DF890
:100AAC00423034D000239DF84020C2F340010B4368
:100ABC0063F341028DF84020FDE69DF8423002219F
:100ACC0061F30203E8E79DF84210022002F078027D
:100ADC0060F30201402A8DF8421002BF9DF84010CD
:100AEC0041F001018DF84010632BDBD1131E18BFB0
:100AFC000123D8E79DF84230032161F3020312F081
:100B0C00780F8DF8423014BF01230023CBE79DF8FA
:100B1C00403043F001038DF84030C3E79DF940208D
:100B2C00002AB4BFDDF844804FF0FF38D5E69807B3
:100B3C007FF5E2AEDDF848A09DF841100023CDE929
:100B4C0011339DF8423003F00703012BC1F3C301AD
:100B5C0033D1CB1E042B04D8DFE803F02146462109
:100B6C002100236801294FEAE372CDE90E321CD132
:100B7C009DF93830DA17CDE90E3204349DF8403047
:100B8C0013F0030650D0039B3A465946484603F0EF
:100B9C004CFB0028C0F253810544039FF2E554F846
:100BAC00043BDA17CDE90E32E8E70229E5D11AB297
:100BBC0043F3C033CDE90E23DFE7022B24D1CB1E48
:100BCC00042B04D8DFE803F01810101818000129C2
:100BDC0054F8043B4FF0000214D00229CDE90E3238
:100BEC00CCD19BB20E93C9E7073424F00704F4E888
:100BFC000223CDE90E23C1E754F8043B0E930023E6
:100C0C000F93BBE7DBB2CDE7042B08D1073424F0FC
:100C1C000704D4E900230834CDE90E23AEE7032BF7
:100C2C00ACD154F8043BDDE79DF843007828B4D8E8
:100C3C0062281CD825283FF4ADAD5828ADD10DF154
:100C4C0036030093DDE90E0108AB10AA03F0A7FAF6
:100C5C00BAF1000F074680F29A80002F9DD00DF15B
:100C6C003603D81B002E00F0C1800130BEE0633883
:100C7C00152892D801A252F820F000BF5D0D00009B
:100C8C006F0D0000A70B0000A70B0000A70B0000C6
:100C9C00A70B00006F0D0000A70B0000A70B0000B6
:100CAC00A70B0000A70B0000FD0D0000950D000028
:100CBC00BB0D0000A70B0000A70B0000E10C00000F
:100CCC00A70B0000950D0000A70B0000A70B000060
:100CDC00950D0000BAF1000F0E9F35DB51463846DA
:100CEC0003F0DDFA07EB000A002F3FF456AF0026A5
:100CFC009DF8423013F01002059200F09380023000
:100D0C005B06119A48BF129B0492104448BFC0184E
:100D1C00B8F1000F40F3A0809DF84020A8EB00082C
:100D2C00C2F380035007069300F19680510640F100
:100D3C0089803EB159463046C84700287FDB069B68
:100D4C0001351E4630227EE0384603F0A1FAC9E791
:100D5C000E9B8DF82030002608AF0DF1210A0120E2
:100D6C00C6E719075CBFC3F300135E01DDE90E2370
:100D7C0048BF2B26002BBFF662AF524263EB4303F6
:100D8C00CDE90E232D265AE7002658E700269DF8BC
:100D9C0040200DF13603DB1B6FF386129A458DF85C
:100DAC0040207FF65AAFAAEB0303119355E70E9838
:100DBC0090B30DF13603009310AA08AB002103F099
:100DCC00EEF9BDF8423003F0EF0343F4F04343F087
:100DDC001003BAF1000F0746ADF84230D6DA0028FE
:100DEC003FF4DBAE0DF13603181A00269A467FE766
:100DFC000E9B07293FF6D1AEDFE801F00C04060C80
:100E0C0008080C0C1D70C8E61D80C6E6EA17C3E97D
:100E1C000052C2E61D60C0E62E4F064607F1050AD9
:100E2C00052065E71A0748BF013069E707931046AC
:100E3C0006925946C8470028DDE9062304DA15B0A6
:100E4C00BDE8F08F202243461946002903F1FF33F9
:100E5C00ECDC45446D1A98462EB159463046C847CD
:100E6C000028ECDB01359DF84230DA0601D41B0773
:100E7C0005D559463020C8470028E0DB0135059BD5
:100E8C0033B19DF843005946C8470028D7DB0135DC
:100E9C00049E2E4405E059463020C8470028CEDB7E
:100EAC000135731B002BF6DC53463A46594648462F
:100EBC0003F0BBF90028C2DB0544A844A8EB0503EA
:100ECC00002B7FF76AAE59462020C8470028B6DBB6
:100EDC000135F3E72A4D000001F01ABC2DE9F84367
:100EEC0005464FF02003EFF3118683F31288BFF30E
:100EFC006F8F0E4B0E4F1C68DFF838804FF00C09CB
:100F0C002CB986F31188BFF36F8FBDE8F883D4E951
:100F1C000123002D18BF13462BB198F8102009FBA4
:100F2C0002F2B85C98472468EAE700BF2002002070
:100F3C00140200206803002070B5194B1C7CBFF311
:100F4C005B8F04F01F0301229A40164B610903EBDF
:100F5C008103D04353E8001F01EA000543E8005623
:100F6C00002EF7D1BFF35B8F0A4213D00E4B0F4DFF
:100F7C008BB10C236343EA18E85C517803F0BDF99C
:100F8C000020FFF7ABFF0C235C432A1900232B51E5
:100F9C00C2E9013370BD83F31188BFF36F8FEFE7A4
:100FAC0068030020280200200743000014020020E0
:100FBC002DE9F041354B07461D7C4FF02003EFF334
:100FCC00118883F31288BFF36F8F0C24304B314E92
:100FDC006C431A19195D00294CD007CA06EB040C96
:100FEC008CE8070000221A5588F31188BFF36F8F25
:100FFC000C236B43F218F05C002839D07B1C10D00A
:10100C00D2F808C0244C254A4FF400400021ECFBD8
:10101C00004100232046FFF75BF80121381A01F04C
:10102C001FFB02F0FDFC0120FFF758FFBFF35B8FA5
:10103C001B4B6A0903EB820305F01F0101228A4056
:10104C0053E8000F104343E800010029F8D1BFF327
:10105C005B8F144B3BB10C2303FB05F03318305C56
:10106C00597803F03EF9FFF767FF02F0EDFC012021
:10107C00BDE8F0810146284600F016F80028B3D0F0
:10108C0007C8344484E80700AEE700BF68030020BB
:10109C0008020020140200203F420F0040420F00C3
:1010AC0028020020EF4200002DE9F04F85B00E46DB
:1010BC0003A900F043F81E4B039DD3F800A0DFF802
:1010CC007480431E1BB203EB4303044605EB8305FC
:1010DC004FF400474FF0000B24B9A146484605B029
:1010EC00BDE8F08F6868144AC4465946E0FB07C156
:1010FC0000236046FEF7ECFF0190A8680E4AC44638
:10110C005946E0FB07C100236046FEF7E1FFBAF148
:10111C00FF3FA94601D0824505D9731CDED0019B47
:10112C001844B042DAD9013CA4B20C3DD4E700BF5C
:10113C00040000203F420F0040420F0008B9024B50
:10114C000B600020704700BFE84B000001491022E3
:10115C000A60704710ED00E072B6404080F31188D1
:10116C00BFF36F8FBFF34F8F30BF62B6BFF36F8F7C
:10117C00704700BF72B6494081F31188BFF34F8F9F
:10118C0020BF80F3118862B6704700BF40B20028C0
:10119C0007DB044A4109012300F01F00834042F899
:1011AC002130704700E100E0054B420900F01F00C0
:1011BC0053F82220012303FA00F01040704700BFBF
:1011CC0000E100E040B20028A8BF00F1604001F14E
:1011DC000101B8BF064B4FEA4111ACBF00F56140AD
:1011EC0000F00F00C9B2B4BF195480F80013704757
:1011FC0014ED00E030BFFFF7FDBF00BF0B4A08B590
:10120C000B4B22F07F029A60BFF34F8FBFF36F8FAF
:10121C00D3F8882022F47002C3F8882002F09AF8E0
:10122C0002F038FD00F020FA02F0D8F800000000BF
:10123C0000ED00E0094A0A49936809689967094971
:10124C0058674B6843F080534B60002383F311883D
:10125C00BFF36F8F9368986F704700BF68030020CF
:10126C00C84C000000ED00E012498A684FF03000D5
:10127C001044EFF3098C80E8F01F202080F31288D3
:10128C00BFF36F8F0C4F4FF000668A698A603E6027
:10129C00506F0023536780F3118804B5104600F09B
:1012AC007FFABDE8044002F1300090E8F01F8CF3A7
:1012BC00098870476803002004ED00E01EF0040F5D
:1012CC000CBFEFF30880EFF30980816911F8021C61
:1012DC000229FFD001B502F0C2FF01BD42F8203C4B
:1012EC00009B42F81C3C0A49019B42F8183C029BAB
:1012FC0042F8143C21F001014FF0807342F8043C99
:10130C0042F8081C0023203A02654367704700BF6F
:10131C00E53F0000094A0346906870B113F1160FBF
:10132C00406E05D0A0F140029A4205D8834203D208
:10133C00814228BF002070470020704768030020BE
:10134C0008B5094B0D461446986000F029FA204662
:10135C0085F30988002163B681F31188BFF36F8F81
:10136C000022002302F038FE6803002001B572B69B
:10137C000B4A506900281EBF0021516103F023FA6B
:10138C0062B6EFF30580A0F110004FEAC0000549EA
:10139C00014409C99847BDE80140034908470000CA
:1013AC00680300200C4A0000B9130000044B996834
:1013BC009869884203D003494FF080520A60704705
:1013CC006803002004ED00E070B5264B15469A6AC0
:1013DC0012F0100F9A6A14BF1124102412F0080F87
:1013EC009A6A18BF1224920706460AD5586B9A6A55
:1013FC00140634D519B19A6A22F080029A62132429
:10140C0001E06FF01500174B9A6A12F0010F9A6AFF
:10141C0018BF142412F0200F9A6A18BF1524D20694
:10142C0002D49B6A9B070AD50E4B5B68190506D53F
:10143C003146FFF76FFF10B180F309880224094B86
:10144C009A6A920642BF5A6A22F400525A629A6A07
:10145C0042F0FF029A6200232B70204670BD6FF0A1
:10146C001500CCE700ED00E0134B9A6A12F0007FF8
:10147C009A6A14BF1E201D2012F0807F9A6A18BF32
:10148C001F2012F4002F9A6A18BF212012F4802F0B
:10149C009A6A18BF222012F4003F9A6A18BF2320C0
:1014AC0012F4803F9A6A6FEA02426FEA12429A6221
:1014BC0018BF2420704700BF00ED00E010B5194B99
:1014CC000246986A9C6A10F4805F14BF172016209D
:1014DC0014F4006F9C6A18BF1820A40509D5986BEA
:1014EC00986A000404D51AB19A6A22F400429A62EE
:1014FC0019200C4B9A6A12F4806F9A6A18BF1A2042
:10150C00D2050CD49B6A13F4005F18BF1C20054A4B
:10151C00936A43F47F43936200230B7010BD1B202E
:10152C00F5E700BF00ED00E070B5454B5B688AB095
:10153C000546C3F30803002686F31188BFF36F8FAB
:10154C0002F07F40B0F17F4F11D102F00C0008285F
:10155C000DD010074CBF0D4601260022033B8DF821
:10156C000720032B05D8DFE803F01E5D615A3546D2
:10157C00F3E700249DF807309BB92022294602A8E6
:10158C0002F096FE099B002E54D0C3F3080222B938
:10159C006FEA53236FEA4323099302A9204602F012
:1015AC005CFE0AB070BD264BDA6A9107E1D4DA6AA8
:1015BC00002ADEDBDA6A5200DBD55A69A96942F4EB
:1015CC0080725A61BFF34F8FBFF36F8F5A6931F836
:1015DC00021C22F480725A61BFF34F8FBFF36F8FDE
:1015EC004DF6027291420AD09A6AD2B24AB10DF10A
:1015FC00070201212846FFF7E7FE0446BAE72C68EC
:10160C00B8E79A6A12F47F4F05D00DF1070101205B
:10161C00FFF754FFF1E79B6AB3F5803FA9D3FFF7BF
:10162C0023FFEAE70DF107020021E3E70DF10701C3
:10163C000020EDE723F4FF7323F00103ACE700BFB8
:10164C0000ED00E0024A536943F010035361704708
:10165C0000ED00E0EFF30880EFF3098101B572466D
:10166C00FFF762FF01BD00BF044800232021C21810
:10167C000133272B82F80013F9D1704700E100E009
:10168C00002080F31488BFF36F8FFFF725FC002038
:10169C000D490860BFF34F8F0C4880F3088800F0A9
:1016AC002BF8202080F3118809484FF4046140186E
:1016BC0080F30988EFF314800221084380F3148827
:1016CC00BFF36F8FFFF79AFD94ED00E080150020BB
:1016DC00C00700200749D1F890200023C2F307224D
:1016EC001846934200DB7047C1F89830C1F8A0004F
:1016FC000133F6E700ED00E008B572B6002383F382
:10170C001388FFF7E7FF144B4FF0FF32C3F880202C
:10171C00C3F88420C3F88820C3F88C20C3F8902029
:10172C00C3F89420C3F89820C3F89C20C3F88021F8
:10173C00C3F88421C3F88821C3F88C21C3F8902105
:10174C00C3F89421C3F89821C3F89C2162B6BFF367
:10175C004F8FBFF36F8F08BD00E100E0084B9B6813
:10176C0083420BD1EFF3058343B1064B5A6842F029
:10177C0080525A605A6A22F400425A6202F02ABA23
:10178C006803002000ED00E0024B034A03480121EE
:10179C0000F070B80000012000000020E84B0000B1
:1017AC00426E054B403A1A60044A4021C3E90112CB
:1017BC001846012100F068B82C02002000000B151F
:1017CC00F0B5204E00258D4239DA446874B353B11C
:1017DC0004F1FF3C14EA0C0F2FD11F2C2DD90768F4
:1017EC001CEA070F29D1202C0768D0F808C05FFA33
:1017FC0082FE1ED9B4F1004F1DD8013CB4FA84F41A
:10180C00C4F11F046400BEF1070F4CEA040C14D899
:10181C0027F01F04144344F01004C6F89820C6F8AF
:10182C009C404CF00104C6F8A040013201350C304C
:10183C00C9E70824E7E73E24E5E76FF015021046F8
:10184C00F0BD00BF00ED00E0044B0522C3F894206E
:10185C00BFF34F8FBFF36F8F704700BF00ED00E0F9
:10186C00BFF35F8F024B0022C3F89420704700BF78
:10187C0000ED00E010B5034C01232278FFF7A0FF28
:10188C00207010BD9C03002008B5094A0023127873
:10189C00FFF796FF10F1160F02D0064A072800DD5D
:1018AC0008BDC2F89800C2F8A0300130F6E700BFBE
:1018BC009C03002000ED00E014490868082810B5CE
:1018CC0021D8FFF7CDFF124C49680022904201F15C
:1018DC000C0105D10F4B1870FFF7B6FF002010BD9F
:1018EC00C4F8982051F80C3C23F01F03134343F029
:1018FC001003C4F89C3051F8043C43F00103C4F8C5
:10190C00A0300132E2E74FF0FF30E8E7F44B000083
:10191C0000ED00E09C030020014B1860704700BFF5
:10192C00080000200239012902D8034B1B68184714
:10193C004FF0FF30704700BF080000200FB41FB5F8
:10194C0006AB002153F8042B0548009102210393A8
:10195C00FEF710FF05B05DF804EB04B0704700BF54
:10196C00EB4200004FF02003EFF3118283F3128857
:10197C00BFF36F8F06490123C1F840354FF080410A
:10198C00C1F8783582F31188BFF36F8F0020704750
:10199C0000E001404FF08043C0B2C3F81C05BFF318
:1019AC004F8F0549054BCA6802F4E0621343CB60C4
:1019BC00BFF34F8F00BFFDE700ED00E00400FA0518
:1019CC0020B1034B800143F001031847704700BF5F
:1019DC00B04B0000084B70B5C31A0D4607499B105D
:1019EC00044659430648402202F0A9FC2B46014606
:1019FC002046BDE8704018474C020020B76DDBB69E
:101A0C00C449000073B50C4C0C4A4023041B0093D2
:101A1C000D460B460A49A41061430646094802F0DC
:101A2C00BBFC011E05DA30462B4602B0BDE8704007
:101A3C00184702B070BD00BF4C02002011440000DA
:101A4C00B76DDBB6C449000010B54FF02003EFF3BF
:101A5C00118483F31288BFF36F8F074A136823F046
:101A6C000201DB07116002D4012002F064FE84F352
:101A7C001188BFF36F8F10BD9C020020002270B53F
:101A8C00012104461046FFF79DFB0F4801F020F89A
:101A9C000E4B984215D102F041FE26690C49304696
:101AAC0002F0F4FA00280BDB01253564246908499F
:101ABC0004F11C0002F0EAFA002801DBE5640020C6
:101ACC0070BD6FF00400FBE7151B00000000AD0BB0
:101ADC00144C000070B501460C2309484B43C41844
:101AEC00D4E90E56403300221844A26302F014FCD1
:101AFC002DB132462B460348BDE87040184770BDE7
:101B0C004C020020C449000010B1012804D07047D9
:101B1C00034B1B6C5B0701D1FFF7DCBF704700BFA9
:101B2C004C02002008B54FF02003EFF3118183F332
:101B3C001288BFF36F8F124A136843F002001060D3
:101B4C00DA0708D481F31188BFF36F8F0120BDE849
:101B5C00084000F0CDBF4FF08043D3F80C24D3F8ED
:101B6C000C34D307EED5074802F0D6FB81F311886D
:101B7C00BFF36F8F0020BDE80840FFF7ABBF00BF7D
:101B8C009C0200208C0200201FB500220123CDE90D
:101B9C000223094ACDF800D06B46CDF804D002F0F0
:101BAC002AFC002805DB4FF480420023684601F034
:101BBC004DFD05B05DF804FB2944000010B5074C41
:101BCC0023782BB94FF4A57002F0D0FE01232370BB
:101BDC00BDE81040002000F08BBF00BF9D0300202B
:101BEC002DE9F0413849BFF35B8F0746012251E8DC
:101BFC00003F41E800200028F9D1BFF35B8F33B9D7
:101C0C00324933484B60CB608A6002F052FA7B1E3B
:101C1C00012B2BD8012F07D14FF08043D3F81C3464
:101C2C0003F00303012B21D002F0C7FD0546F8B9E0
:101C3C00284B1B78E3B14FF080430222C3F80823F2
:101C4C000646DFF894804FF08044D4F81834D4F86A
:101C5C001824D20316D503F00303012B01D0012F56
:101C6C0010D15DB386F31188BFF36F8FBDE8F0819F
:101C7C004FF02003EFF3118683F31288BFF36F8FBD
:101C8C000125DEE7ADB13046FFF774FAD4F818350C
:101C9C00002BDAD1D4F80421002AD6D0C4F80431B0
:101CAC00D4F804310123C4F81835C8F88031A36086
:101CBC00CBE70021212001F06DFFE7E74FF08043D7
:101CCC000222C3F80423D1E7480200203802002086
:101CDC0068020020B007002000E100E008B50748CA
:101CEC0002F041FD38B10648FFF716FE0448FEF736
:101CFC001FFC002008BD6FF01200FBE7F449000048
:101D0C00111D00000A2838B5074D044604D1AB68F4
:101D1C000D215B6828469847AB6803485B68E1B2C5
:101D2C009847204638BD00BFF449000030B54068E4
:101D3C00057B01F01F04B2F5001F85B044EA451481
:101D4C0005D1204601F098F9002005B030BD0025E2
:101D5C00B2F5800FCDE9025514D1B3F1007F0CBF61
:101D6C00042305238DF808300023194602AA2046C7
:101D7C0000F0B8FF1D4B984235D10121204601F0EF
:101D8C0037F9E1E7B3F1C06F22D0B3F1007F14BF94
:101D9C00012302238DF808308368CB40D907E3D4A4
:101DAC00B2F1A07FE0D104F01F0303F5E0734FF014
:101DBC00A04252F82330DB07D6D40DF10705294693
:101DCC00204601F0C1F80A4B984203D00395CBE7AB
:101DDC000323DFE7284601F005F9044B9842F5D0C0
:101DEC006FF00B00B1E76FF01500AEE70000AD0B24
:101DFC000400AD0B10B501F0E5F8044668B901F02C
:101E0C00B9F8084B98420AD10748214601F096F8D8
:101E1C00224605210620FFF7D5F9002010BD6FF0F2
:101E2C000400FBE70000AD0B391E0000430970B540
:101E3C0007D10B4B596821B101250C68094E85401F
:101E4C0001B970BD8A682A4002D04B683046984769
:101E5C001CB1236821461C46F2E72346FAE700BF73
:101E6C00A0020020DC4900002DE9FF4147683B7BC4
:101E7C0001F01F0545EA43150E4628460DF10301F6
:101E8C00144601F061F814F4403F80460BD128460B
:101E9C0001F01AF93D4B984503D19DF8030001F070
:101EAC009BF800200CE00023194602AA2846CDE935
:101EBC00023300F017FF354B984204D06FF0150039
:101ECC0004B0BDE8F081804503D19DF8030001F01A
:101EDC0083F8A3034BD540F206332340B3F5837F3D
:101EEC0019D00CD8062B17D004D8ABB1022BE5D1E6
:101EFC00042311E0B3F5807FE0D101230CE040F224
:101F0C000222934227D0B3F5407F26D0B3F5007F51
:101F1C00D4D1022300E007238DF8043084F48033FD
:101F2C00C3F30043E0068DF8053054BFC4F34013EF
:101F3C00032321038DF8063011D57A680123B340B1
:101F4C00C2F80835002201A9284600F079FF0F4B92
:101F5C009842A6D0B2E70523DEE70323DCE7620351
:101F6C0041BF01237A68B340C2F80C35EAE7E306B7
:101F7C004FF0000354BFC4F3401403241A4601A9C4
:101F8C0028468DF8044000F0ADFEE0E70000AD0BF4
:101F9C0070B54B79012B20D18B79032B1DD1CD79C9
:101FAC000DB1012D19D10A7912B1022A15D10E22C7
:101FBC000B684468B3F5164F266864D02BD8B3F57C
:101FCC00165F63D014D8B3F5966F61D008D8B3F50B
:101FDC00967F60D0B3F5167F60D06FF0850051E02E
:101FEC00B3F5166F5DD0B3F5965FF6D1374B3CE089
:101FFC00B3F5E14F58D007D8B3F5615F56D0B3F5C0
:10200C00964FEAD1324B30E047F61224A342E4D18A
:10201C004FF4000329E0B3F5613F49D013D8B3F571
:10202C00963F48D009D84DF6C024A34245D0B3F50D
:10203C00614FD2D14FF46B0317E0B3F5E13FCCD134
:10204C004FF0EB7311E0B3F5612F39D008D8214C68
:10205C00A34238D0B3F5E12FBFD14FF0E86304E0D1
:10206C001D4CA342B9D14FF080530469C6F82435F6
:10207C0043681B682A43C3F86C2503C9231D83E8F6
:10208C000300002070BD4FF41D03EEE7134BECE78B
:10209C004FF49E23E9E74FF4A033E6E74FF41C33EB
:1020AC00E3E74FF41D23E0E70D4BDEE70D4BDCE7D8
:1020BC004FF06C73D9E70C4BD7E74FF46503D4E7BB
:1020CC004FF07063D1E74FF08063CEE700B01300A0
:1020DC0000A04E0090D0030040420F00005027009B
:1020EC0000C0750000F03A0000903A012DE9F7436A
:1020FC008046002201210220FFF764F80220FFF73E
:10210C0045F8D8F80470D8F810603C680021C4F881
:10211C000015C6F80080D7F80C9001AA484602F0CA
:10212C00D5F9051E54DB019BD9F8002019791868E4
:10213C0002F0DFF9051E4BDB311D4046FFF728FF8F
:10214C000546002844D17B6899071AD506F118007A
:10215C0001F086F8224B98423ED1337EDB0003F12E
:10216C00804303F5F83304F10C0204F59071C3F8C5
:10217C001015C3F81425327E01239340194AC2F876
:10218C0004350823C4F800353B7A53B9C4F8103130
:10219C00D4F810317369C4F834350123C4F83835D8
:1021AC0023607B689A075CBF4FF48073C4F80433D8
:1021BC007B68DB0644BF4FF48003C4F804333369F7
:1021CC00C4F844350023C4F848350123A360E36008
:1021DC00284603B0BDE8F0836FF00405F8E700BFB4
:1021EC000000AD0B00F00140F8B5044607690D4640
:1021FC0002F0E3FAB0B92E4B1B789BB164266068F1
:10220C0002F021FA00BB012002F086FA013EF6D161
:10221C000021212001F0BEFCF0E786F31188BFF30A
:10222C006F8FF5E74FF02003EFF3118683F31288DD
:10223C00BFF36F8F6068314602F005FA90B986F3F0
:10224C001188BFF36F8FEDE74FF02003EFF311868A
:10225C0083F31288BFF36F8F6068314602F0F3F995
:10226C000028DAD03B691D70626838691368C3F8BE
:10227C0044050120C3F848050020C3F82001D3F819
:10228C002051C3F858015268D3F85801D20608D52A
:10229C00626812680820C2F800054FF48002C3F887
:1022AC00042301229A6081F31188BFF36F8FF8BD6C
:1022BC00B007002070B5012383400E4ABFF35B8F3B
:1022CC00DC4352E8001F01EA040542E80056002EE8
:1022DC00F7D1BFF35B8F4FF4803282400648C0F8D1
:1022EC000823BFF35F8FBFF36F8F0B4214BF012026
:1022FC00002070BDB00200200010014070B40E49E7
:10230C00D1E90034D01AC31844F1000422F07F46FE
:10231C00C1E90034A6F50013B3F5400F09D2074B01
:10232C001B681A0A1B069C19054B42F10005C3E9F0
:10233C00004570BC01F084BDA8000020B402002050
:10234C00B000002011B3BFF35B8F0123104A834010
:10235C0052E800CF4CEA030C42E800C10029F7D147
:10236C00BFF35B8F0B4A4FF480338340C2F80433C6
:10237C00094BBFF35B8F1B68BFF35B8FC340DB075D
:10238C0042BF064B4FF40032C3F80021704700BF28
:10239C00B002002000100140AC02002000E100E07F
:1023AC000D4B1868010A0006BFF35F8F0B4BD3F877
:1023BC000435181841F10001B3F5801F0AD2084BFF
:1023CC00D3E90023904271EB030303D210F1807028
:1023DC0041F10001704700BFB40200200010014021
:1023EC00B00000202DE9F74F16461F460446FFF7B4
:1023FC0061FF0090FFF7D4FFB04271EB070351D29D
:10240C003A4B301A67EB0101984271F100016AD224
:10241C00374B03EB0413D3E902239F4208BF9642C8
:10242C004ED034494FF4803904F1500509FA04F9BF
:10243C00AD00C1F848932046ADB202F04EF926F03B
:10244C007F4B05F1804504F5A8732B4A019305F5E4
:10245C008835DC464FF0030A019B2CF07F4041F895
:10246C002300C1F84493D1F804856FF00200A0EB6F
:10247C000800604420F07F40904221D9286860B168
:10248C00D1F80485A8EB0B0020F07F40B0F5000FCD
:10249C0016D9204602F021F9174A0AEB080C0AF16A
:1024AC00010AD9E70123154ABFF35B8FA34052E819
:1024BC00000F184342E800010029F8D1BFF35B8FED
:1024CC000B490C98230101EB0412C2E90267C850B6
:1024DC000D9B5360002520460099FFF733FF2846DB
:1024EC0003B0BDE8F08F6FF01505F4E70100800034
:1024FC009800002000100140FDFF7F00AC0200207E
:10250C0073B51B4C1B4BC4F80833C4F848331A4B37
:10251C0000254FF0FF304FF0FF31C4F80855C3E9E8
:10252C0002014FF48033C4F80433144B02264FF4E9
:10253C0000320121C4F804631120C3F880212A461B
:10254C00FEF740FE1120FEF721FE0D4A0123A36089
:10255C00236013600B4B0C4A009301950023284613
:10256C00FFF740FF3046FFF73BFB284602B070BD3B
:10257C000010014003000F009800002000E100E073
:10258C00B002002009230000FFFF7F002DE9F74374
:10259C002F4CD4F8043399070BD5D4F8043143B13C
:1025AC002C4A0023C4F80431D4F8043113680133E5
:1025BC001360D4F80433DA032AD5BFF35B8F264BB0
:1025CC0053E8002F22F0010143E800100028F7D156
:1025DC00BFF35B8FD30702D4D4F84031C3B10025CD
:1025EC00C4F84051D4F84031FFF7DAFE4FF0200325
:1025FC00EFF3118283F31288BFF36F8F174BD3E97C
:10260C000267B042B94106D282F31188BFF36F8FD3
:10261C0003B0BDE8F0834FF0FF384FF0FF39C3E94A
:10262C000289D3E900101D604FF48033C4F848339D
:10263C00C4F84051D4F8403182F31188BFF36F8F46
:10264C000029E5D0009032463B4628468847DFE714
:10265C0000100140B4020020AC02002098000020C1
:10266C00431C13B522D0012822DD124A124B904292
:10267C00D4BF04461C46FFF793FE104B0E49D3E91A
:10268C000023801AB0F5000F28BF002404448C42AC
:10269C0028BF0C46A2180A4900914FF00000019087
:1026AC0043F10003FFF79EFE02B010BD024CE2E7BF
:1026BC000124E0E7FEFF7F00FFFF7F00A800002061
:1026CC000923000008B5FFF76BFE024B1B68C01A0C
:1026DC0008BD00BFA80000204FF0704393F8E02F16
:1026EC00062A09D1D3F8E83FC3F30313033B042BA9
:1026FC0002D8024AD05C704700207047AE4D0000F3
:10270C00024AD2F80034002BFBD0704700E00140A5
:10271C0010B501F0F2FF40B14FF080538E4AD3F860
:10272C002433C3F30423C2F84035FFF7D5FF10B1AF
:10273C008A4B8B4A5A6701F0E0FF48B14FF0805347
:10274C004FF08042D3F84432C3F34233C2F83C35E5
:10275C00FFF7C2FF30B1834AD2F8FC3023F080730C
:10276C00C2F8FC3001F0C9FF40B14FF080430022A9
:10277C00C3F80C21C3F81021C3F83825FFF7ACFFC0
:10278C0020B14FF080430322C3F8A025FFF7A4FF2C
:10279C0060B1754B0522C3F810260122C3F88826B8
:1027AC000022C3F818263F22C3F814264FF080539A
:1027BC00D3F83021511C09BF4FF07043D3F834319A
:1027CC0093F8E02FD3F8E83F08BFC3F30313062AAE
:1027DC004DD1033B042B03D8644AD35C002B46D069
:1027EC004FF08052624BD2F80414C3F82015D2F883
:1027FC000814C3F82415D2F80C14C3F82815D2F811
:10280C001014C3F82C15D2F81414C3F83015D2F8E0
:10281C001814C3F83415D2F81C14C3F84015D2F8A8
:10282C002014C3F84415D2F82414C3F84815D2F870
:10283C002814C3F84C15D2F82C14C3F85015D2F840
:10284C003014C3F85415D2F83414C3F86015D2F808
:10285C003814C3F86415D2F83C14C3F86815D2F8D0
:10286C004014C3F86C15D2F84424C3F8702501F059
:10287C0044FF48B14FF080534FF08042D3F85832A8
:10288C0003F04F03C2F8E43E01F037FF48B14FF0BC
:10289C008043D3F80024D20744BF6FF00102C3F881
:1028AC0000244FF08053D3F83021062A26D1D3F8D8
:1028BC003431033B042B02D82E4AD35C63B12E4A2D
:1028CC00D2F83C3743F48063C2F83C374FF0805366
:1028DC00D3F83031062B11D14FF08053D3F834316B
:1028EC00033B042B02D8254AD35C3BB14FF0102399
:1028FC00D3F808224FF08043C3F858254FF010232B
:10290C00D3F80022002A03DBD3F80432002B22DA9E
:10291C001B4901234FF01020C1F804351524FFF793
:10292C00EFFEC0F80042FFF7EBFEC0F80442FFF7E1
:10293C00E7FE0023C1F80435FFF7E2FEBFF34F8F2B
:10294C000849104BCA6802F4E0621343CB60BFF332
:10295C004F8F00BFFDE710BD0030014000C00740A5
:10296C000DF0ADBA00ED00E000500040A94D0000A4
:10297C0000C00040A44D0000001000409F4D00001E
:10298C0000E001400400FA0570B501250268BFF3B0
:10299C005B8FB2FA82F3C3F11F03DBB205FA03F4C7
:1029AC0022EA040450E8006F964204D140E8004C3F
:1029BC00BCF1000FF6D1BFF35B8FE7D101480B7070
:1029CC0070BD00BF0000AD0B10B50368CB40DB073A
:1029DC0014D401238B400268BFF35B8F43EA0201DE
:1029EC0050E8004F944204D140E8001CBCF1000FA9
:1029FC00F6D1BFF35B8FEED1014810BD0148FCE767
:102A0C000000AD0B0400AD0BF7B5044618B101285E
:102A1C0022D003B0F0BD4FF080430222C3F808234C
:102A2C00C3F80401D3F804210122DA60074601231C
:102A3C008DF8073042F210754FF08046CCB1012C66
:102A4C00E7D1C7B3D6F80C3403F001033B70D6F8CA
:102A5C000C34DA0321D516E04FF080430022C3F882
:102A6C000803C3F80021D3F8002158600DF10707C3
:102A7C00DDE7B7B1D6F8183403F003033B60D6F8A2
:102A8C001834D803C5D59DF80700012803D101F0EF
:102A9C0043FE013DD2D1012CBBD10C4B00225A710B
:102AAC00B7E7D6F81834D903B3D5012001F034FEBA
:102ABC00013DF6D1ADE7D6F80C34DB03EDD50120A2
:102ACC0001F02AFE013DF6D1E7E700BFB802002075
:102ADC00044B1A7922B9012218609A800248704777
:102AEC0002487047B80200200000AD0B0C00AD0B83
:102AFC0038B510B1012843D038BD4FF08042D2F820
:102B0C001834D2F81814C8030BD4D2F81434D907DB
:102B1C000FD5D2F81C349B0708D40223C2F8043317
:102B2C00EAE703F00303012B04D013B10020FFF7F5
:102B3C006BFF00234FF08042C2F818350023C2F817
:102B4C000431D2F804310223C2F80433124AD2F809
:102B5C00FC0040F08073C2F8FC30104B1C6844F051
:102B6C00010119605D685968491BB1F50A5FFAD318
:102B7C001C604FF08043C2F8FC0001229A60BBE756
:102B8C004FF080430022C3F80021D3F80021C3F892
:102B9C0004031860B0E700BF00ED00E0001000E097
:102BAC0010B54FF08043D3F800216AB10022C3F86E
:102BBC000021D3F800210122C3F80823114B5879C6
:102BCC0010B95A711B6898474FF08043D3F8042111
:102BDC0072B10022C3F80421D3F80421D3F81824CD
:102BEC00D3F81814920704D10122C3F818259A605F
:102BFC0010BD0222C3F80823024BBDE810401B682D
:102C0C0001201847B8020020034B083033F810009D
:102C1C00C0F34010704700BF2800002070B500F1D1
:102C2C0008030C4C34F81330DA0505460E4607D56C
:102C3C00C3F3432304EBC30254F833305268984770
:102C4C00A3682BB1E26831462846BDE870401847AE
:102C5C0070BD00BF2800002010B4124A083032F8B2
:102C6C001030D9051BD5C3F3432123F4F85322F8B4
:102C7C00103002F10E04002034F8023F13F4807F70
:102C8C0003D0C3F34323994209D001302028F3D158
:102C9C00002342F83130044810BCFFF795BE10BC3D
:102CAC00704700BF280000207C00002038B5024689
:102CBC00FFF7AAFF094C02F1080540B134F81530B2
:102CCC0007495B0B03F5A273002041F82300104663
:102CDC00FFF7C2FF002324F8153038BD2800002070
:102CEC00006000402DE9F34104461D4609B34F4FE7
:102CFC0000F1080837F81860B30706D5FFF784FF12
:102D0C0018B14B4802B0BDE8F08104F01F039B00E2
:102D1C0003F1A0430978D3F8000726F0020620F04F
:102D2C000F0046F0010640EA810127F81860C3F84D
:102D3C0000179AB13D4B1778506804F1080633F828
:102D4C00161011F0020F0DD00028DAD133F816202E
:102D5C0022F01C0242EA870223F81620002D3BD1F8
:102D6C003448CFE721F02001C904C90C23F8161010
:102D7C000028EBD0032FC4D8526892F800C02FB9AA
:102D8C002D4A0CF5A27C42F82C70DFE74FEA8C023E
:102D9C0002F1804202F5C04241EA4C31D2F81005F2
:102DAC0020F00300C2F81005D2F8100520F44730CB
:102DBC0020F44070C2F810052002D2F810E500F49F
:102DCC00F85040EA074040EA0E0041F0200123F899
:102DDC001610C2F81005B9E7D5E900672046FFF7D1
:102DEC003BFF002EBCD0114DD5E90023964201D1FA
:102DFC009F4219D011480DF10701FFF7C5FD0D4B8E
:102E0C0098427FF47FAF9DF8072045F8326005EBC0
:102E1C00C20308345F6035F8143043EA422343F4AC
:102E2C00807325F814309BE70022EEE72800002081
:102E3C000400AD0B0000AD0B006000407C000020D6
:102E4C00F8B5044689B33A4E00F1080736F8175026
:102E5C00AB0704D4FFF7D8FE08B13648F8BD15F01F
:102E6C001C0F4B7824D104F01F0000F5E07E4FF0CE
:102E7C00A04C5B005CF82EC091F802E009782CF4B1
:102E8C00E16C43EA8E032CF0070C43EA0C0343EA93
:102E9C00012300F5E0704FF0A04143F0010345F031
:102EAC00030541F8203026F8175022B92248D5E7FF
:102EBC00012BD8D1D1E71E4E04F1080736F81700C4
:102ECC008307CAD592F800C06146890020F0200023
:102EDC0001F18041C00401F5C041C00C26F8170077
:102EEC000023C1F810355578002DDFD0D1F81035FE
:102EFC00927823F4981323F4F853C1F81035D1F8D1
:102F0C0010E5230203F4F8532D0443EA0E0305F4F1
:102F1C00403512052B4302F4801240EA4C30134327
:102F2C0040F0200026F81700C1F81035BEE700BFAE
:102F3C00280000200400AD0B0000AD0B014BC3E9D1
:102F4C00020170472800002008B50246FFF75CFE1E
:102F5C0038B1054B0548083233F812305B0B0B7057
:102F6C0008BD0348FCE700BF280000200000AD0BA3
:102F7C000400AD0B38B50F4C94F85850BDB9402235
:102F8C00294604F1100001F09EF90620FEF7FEF828
:102F9C00094B0A48C3F87C51D3F87C214FF000420E
:102FAC00C3F80423012384F85830636538BD044802
:102FBC00FCE700BF28000020006000400000AD0BC3
:102FCC000500AD0B034B93F85800003818BF0120D7
:102FDC00704700BF2800002001460148FFF7F4BCF1
:102FEC007800002001460148FFF7CEBC7800002095
:102FFC0010B50246FFF708FE02F108041C4B33F82B
:10300C001430E0B113F0020419D15B0B9A0002F1F9
:10301C00804000F5C24002F1804202F5C0420460DB
:10302C000068D2F8100540F00100C2F8100529B173
:10303C00012202FA03F30F4AC2F8043310BDC3F3A2
:10304C008203042B10D0052B10D04FF0A043D3F8E3
:10305C00101502F01F03D94001F001010231BDE847
:10306C001040104601F069BB0321F8E70221F6E796
:10307C00280000200060004008B50246FFF7C4FDA0
:10308C00C0B102F108010E4B33F81130990711D47D
:10309C005B0B01229A409B000A4903F1804303F524
:1030AC00C043C1F80823D3F8102522F00302C3F85B
:1030BC00102508BDBDE808400021104601F03DBBBD
:1030CC00280000200060004010B50D4B00F10802F4
:1030DC00044633F81230DB070FD5FFF7CDFF20463F
:1030EC0004F01F04FFF7E2FD04F5E0744FF0A04379
:1030FC00022243F82420034810BD0348FCE700BF1C
:10310C00280000200000AD0B0400AD0B2DE9F74F9B
:10311C004F4B50485049002501222C461E6836B1B1
:10312C00D0F8046316421EBF1C601E68154304339E
:10313C008B424FEA4202F1D1464BD3F87C31BBB102
:10314C004FF0A046D6F820350193C6F8203501AFD4
:10315C004FF00108019C8CB93E4BC3F87C41D3F86D
:10316C007C31D6F820350193C6F82035002BEED1F2
:10317C000124002D53D103B0BDE8F08F94FAA4F4D0
:10318C00B4FA84F4354A04F10803E00832F8131059
:10319C003B5C04F0070208FA02F223EA02033B54F8
:1031AC00A30003F1A049C1F3820AD9F80027CB068A
:1031BC00D346C2F3014218D5594620465FFA82FA2B
:1031CC00FFF72CFDD9F80037C3F301439A4507D11B
:1031DC000021204601F0B1FA5146204601F0ADFA2B
:1031EC0008FA04F4C6F82045B4E7022A0CD10321EE
:1031FC00204601F0A2FA0AF00503012BF0D1594642
:10320C002046FFF70BFDEBE70221204601F095FA73
:10321C00BAF1030FF3D0032AE2D18A45EEE795FA0F
:10322C00A5F3B3FA83F304FA03F29B0003F1804392
:10323C0003F5C04325EA0205D3F81005D3F81015A1
:10324C00C0F30420C1F30141FFF7E8FC91E700BF94
:10325C000061004000600040206100402800002018
:10326C0001460148FFF790BB8400002010B5144CB8
:10327C00144A1549032323616361144BA261E36172
:10328C004FF4806323620023A3626362E3622266CD
:10329C000F4A6266E01D1022A2662367E36663672D
:1032AC0000F0ECFFBFF35F8F0A49204600F0E6FF09
:1032BC00BFF35F8F2023A371BFF35F8F10BD00BFDF
:1032CC00C0020020D34D0000DC4D0000B0030020F4
:1032DC00A0030020E04D0000104B70B553F82040C7
:1032EC00013053F82060A64200D870BDD4E90035F7
:1032FC008DB12846984738B10028B8BF4042EB68DA
:10330C00FF28A8BFFF201870EA68537843F0010328
:10331C0053700834E7E79847FBE700BFCC4C00003C
:10332C0008B50A4B012203201A70FFF7D5FF00F0F5
:10333C000BFE0420FFF7D0FF00F0F0F8FDF750F87B
:10334C00034A137B23F00103137308BDB00700205D
:10335C003801002008B50348034A0021121A01F075
:10336C0028FA08BD98000020B407002070B500238F
:10337C0086B00122CDE90423134E144D01930F2284
:10338C00CDE902321249142303FB005506EBC0169B
:10339C0004464FF4C07000FB04110E4B00954FF423
:1033AC00A072304600F088F8737B0B4AEE6023F075
:1033BC00040373734FF4046304FB033313442C743E
:1033CC006B6006B070BD00BFB80000206803002021
:1033DC0000100020E1350000C007002080B500205F
:1033EC00A6B0FFF779FF2D4B83F308882C4D2D4E9B
:1033FC006B692D4F43F400736B610024E02385F857
:10340C002230EC772C766C76AC7685F820406B6AA3
:10341C0043F4E0236B6285F82340FEF713F9FDF7C4
:10342C0095FE4FF0FF33AB62EB62FEF745FAFEF709
:10343C00ABF940F20113ADF8243006ABB360CDE923
:10344C001F44229401F08EF90120FFF745FF022062
:10345C00164DFFF741FF00F013FB154BB5610593BB
:10346C00012314490094CDE903434FF480623B4699
:10347C00CDE90144284600F01FF86A7B064622F08D
:10348C00040228466A7301F0DFF92046FFF76EFF4D
:10349C003A4631462846FDF753FF00BF0010002086
:1034AC0000ED00E0680300202D33000038010020FF
:1034BC00E74D0000801100202DE9FF410E9E0673A0
:1034CC00042646730D9E867300F158050F46D61DD3
:1034DC00C0E916550C9A002526F007064037C0E9BE
:1034EC000655C0E919768560C573C56606F14008B6
:1034FC0002920B9A019288440A9A00924246044620
:10350C00FDF7ECFE044B65659B6803B11B6F2367ED
:10351C00404604B0BDE8F081680300202DE9F0437B
:10352C00294C2A4D87B02646AE4204F12C040FD309
:10353C0000F076FA244CDFF898904FF4004640F2F5
:10354C00E737AC4220D307B0BDE8F04300F07CBABB
:10355C0054F8043C059354F80C3C049354F8103C78
:10356C00039354F8143C029354F8183C019354F808
:10357C001C3C009354E9092354E90B01FFF79CFF11
:10358C0054F82C3C5E65CEE7636A5A1C0DD023EAD6
:10359C00E37300213846C3FB060151EAC333D4F868
:1035AC00008004D1404600F0EBF92C34C9E74FF40D
:1035BC007A720023FCF78CFD02460B4608F11800CA
:1035CC00494600F0C7FBF0E7444B0000444B0000B9
:1035DC00B948000008B50B4C0B4D4FF02002EFF32F
:1035EC00118382F31288BFF36F8F01F0ABF92B7844
:1035FC00606113B9FDF7B0FDEFE7FDF7D9FC0028CA
:10360C00EBD1F7E768030020B007002038B504467B
:10361C004FF02003EFF3118583F31288BFF36F8F04
:10362C0001F048F948B10022826701F00DF92946F2
:10363C000548BDE8384000F091B9D4E902329A420D
:10364C0018BF0133A360F2E7B107002013B54FF0A8
:10365C002004EFF3118184F31288BFF36F8F846819
:10366C0044B1013C846081F31188BFF36F8F00205B
:10367C0002B010BD52EA030406D181F31188BFF3E6
:10368C006F8F6FF00F00F3E7CDE90023024602487D
:10369C0000F046F9ECE700BFB1070020C3897F2B8F
:1036AC0012D80A4B1B6863B1094B90F90E201B68AA
:1036BC009A4209DB437BDB0606D1064BC31A18BFC3
:1036CC00012303F0010070470023FAE79403002064
:1036DC0090030020B8000020044BC01A044BC0100B
:1036EC005843044B01221A54704700BFB801002004
:1036FC00ABAAAAAAB107002070B50E4B0E4C1E7CCB
:10370C0006EB460304EBC3040546204601F004F91E
:10371C000A4B002228469A55FFF7C0FF48B1084BC8
:10372C0008491A68013A2046D317BDE8704000F0EA
:10373C0011BB70BD68030020B8010020B107002048
:10374C0094030020E536000038B50D4D2B4653F898
:10375C001C4F9C4200D004B9EC68AB6838B95A7B5A
:10376C00D20604D1A26912B9DA897F2A05D89C4203
:10377C0002D02046FFF7C0FF2346AB6138BD00BF27
:10378C006803002070B590F90D20437B002A014698
:10379C0004DA03F07F03437301F01CF84B7B154AEA
:1037AC0063F07F0310464B7350F81C3F146A83423E
:1037BC0008BF002323B9C1E90004216011620CE0A9
:1037CC0091F90E5093F90E60B5420ED0AE420CDD5D
:1037DC005868C1E90030016059609068431A58423A
:1037EC00BDE870405841FFF7AFBF9C42E3D01B6867
:1037FC00E0E700BF6803002070B490F90D30427B05
:10380C00002B29DBD30627D183692BBB134962F02C
:10381C007F0242730A4652F81C4F944218BF23464B
:10382C000C6A23B9C0E90024206008620CE090F90E
:10383C000E5093F90E60B5420AD0AE4208DD5A68BC
:10384C00C0E900321060586070BC0020FFF77CBFEC
:10385C00A342E7D01B68E4E770BC70476803002004
:10386C0008B590F90D20437B002A014604DA03F0D9
:10387C007F03437300F0AEFF044B9868431A584221
:10388C005841BDE80840FFF75FBF00BF6803002048
:10389C0070B515461C46064600F0AEFFB4F1FF3F6E
:1038AC0008BFB5F1FF3F08D02A46234606F11800A1
:1038BC000249BDE8704000F04DBA70BDB948000037
:1038CC0038B54FF02003EFF3118583F31288BFF363
:1038DC006F8F104B104A9C681068A04206D1FFF7FE
:1038EC000BFF85F31188BFF36F8F38BD00211B7C54
:1038FC0011600A4AD35C002BF3D02046FFF7CEFEB2
:10390C000028EED0637BDB0602D12046FFF73AFF9E
:10391C002046E4E7680300208C030020B107002058
:10392C0070B50C480C4D86682E600C461146DDE9CE
:10393C0004234FF02006EFF3118586F31288BFF3B2
:10394C006F8F8068FFF7A4FF2046BDE87040FDF73D
:10395C0071BC00BF680300208C03002049B9EFF351
:10396C00058030B9054B9A699B689A4201D0FDF7E6
:10397C0061BC81F31188BFF36F8F7047680300201F
:10398C0010B54FF02002EFF3118482F31288BFF3CD
:10399C006F8F427B510704D484F31188BFF36F8F70
:1039AC0010BD22F004024273FFF726FF21460248A5
:1039BC00BDE81040FFF7D2BFB207002070B5044637
:1039CC00183000F0A9FF4FF02003EFF3118683F3BA
:1039DC001288BFF36F8F94F90D20637B002A05DAF0
:1039EC0003F07F036373204600F0F4FE0B4D637B02
:1039FC00A86843F010036373031B58425841FFF748
:103A0C00A3FE86F31188BFF36F8FAB68A34203D17B
:103A1C00BDE8704000F076BF70BD00BF68030020A9
:103A2C004FF02003EFF3118183F31288BFF36F8FF4
:103A3C00044B9A68D37B013BD37381F31188BFF39A
:103A4C006F8F70476803002010B54FF02003EFF321
:103A5C00118483F31288BFF36F8F084B9A68D37B62
:103A6C000133D3730020FFF76FFE84F31188BFF38B
:103A7C006F8FBDE8104000F045BF00BF6803002009
:103A8C00024B03F11C02C3E90722704768030020B4
:103A9C00F8B54FF02003EFF3118583F31288BFF3D1
:103AAC006F8F19498868437B03F07F03437300F0E1
:103ABC0091FE8B685A7B084662F07F025A7350F86D
:103ACC001C2F0C6A824208BF002222B9C3E90004F1
:103ADC0023600B620CE093F90E6092F90E70BE42FB
:103AEC000ED0B7420CDD5168C3E900210B60536066
:103AFC000120FFF729FE2846BDE8F840FDF79ABBE8
:103B0C00A242E3D01268E0E76803002050EA010308
:103B1C002DE9F04105460E4603D1FFF7B9FF002011
:103B2C002CE0831C71F1FF332ADB00F01BFF2C18F7
:103B3C004FF02003EFF3118883F31288BFF36F8FDC
:103B4C00114F124BB8681860FFF78AFEB86810491D
:103B5C002A463346183000F0FDF8BA68537B43F020
:103B6C00100353734046FDF765FB00F0FBFE201A73
:103B7C0063EB0303012873F10003D0DBBDE8F08194
:103B8C006FF00104241AD3E7680300208C03002093
:103B9C00B9480000B1F1FF3F08BFB0F1FF3F08B5D5
:103BAC0006D1084B9868FFF709FF4FF0FF3008BDAE
:103BBC00FFF7ACFF4FF47A7380FB0303C00B40EAB2
:103BCC004340F4E768030020014B9868704700BF3E
:103BDC00680300202DE9F04104464FF02003EFF379
:103BEC00118683F31288BFF36F8F037BD9070BD534
:103BFC0086F31188BFF36F8F404080F311884FF02C
:103C0C00040002DFBDE8F081437B1A0704D586F37C
:103C1C001188BFF36F8FF5E723F0200242F0080103
:103C2C00D20920D14173A36813B1204600F0DAFD0C
:103C3C0004F1180000F070FE04F158074FF0000872
:103C4C00A56DBD4200D0B5B90120FFF77DFD104B2D
:103C5C009B68A342DBD1EFF30583002BD7D1304611
:103C6C00FDF7E8FAD3E703F05F0343F0080343736F
:103C7C0000F0B0FDD7E7284600F0B4FD05F11800C0
:103C8C0000F04AFEC5F878802846FFF7B5FDD7E767
:103C9C006803002008B50648064A0749121A00F0C6
:103CAC008AFDBDE80840054A0549064800F083BD79
:103CBC000000002096000020204E000000000000B4
:103CCC00204E000000000020034B1B680BB9FEF7D0
:103CDC00F9BC0020704700BF9803002010B50E4BB4
:103CEC001C689C4204D1FFF7EFFF6FF0004010BD41
:103CFC00FFF7EAFF002CF8D0D4E904321B1A62EB70
:103D0C00E072B3F1004F72F10001EEDA002AACBFA1
:103D1C0018460020EBE700BF8800002030B570B1DA
:103D2C000B4B5B6898420AD0036843B1D3E904217A
:103D3C00D0E90445121941EB0501C3E90421D0E98E
:103D4C00003213605A600023C0E9003330BD00BF5D
:103D5C0088000020B3F1FF3F08BFB2F1FF3FF8B578
:103D6C0004461D4616465CD081604FF02003EFF3ED
:103D7C00118783F31288BFF36F8F013275F1FF3314
:103D8C0024DA2D49D1E900206FF001039B1A4FF082
:103D9C00FF3262EB00009E1B60EB0500012E70F100
:103DAC00000301DA01260020C4E90460234ED6F892
:103DBC0000C07568B44508BF4FF0000CBCF1000F93
:103DCC000DD1C4E900652C6074601CE0FFF77CFF2A
:103DDC00013645F10005361845EBE070E4E7DCE907
:103DEC000420D4E90431934271EB000E1ADAD21A92
:103DFC00DCF8043060EB0100CCE90420C4E900C31A
:103E0C001C60CCF804403368B34206D09C4204D109
:103E1C00FFF764FF0021FEF723FC87F31188BFF343
:103E2C006F8FF8BD9B1A61EB0001AC45C4E90431FE
:103E3C00C7D0DCF800C0C1E7D0010020880000200A
:103E4C002DE9F84F4FF02003EFF3118C83F3128818
:103E5C00BFF36F8FDFF8B0A0DFF8B0902C4FC9F82C
:103E6C000000DAF800000024504508BF00200025AF
:103E7C00D7E90021D9F80030E04680B3D0E9046CD2
:103E8C004FEAE37EB3427EEB0C0B05DAF61A6CEBD1
:103E9C000E04C0E9046422E0B21841EBE671C0E9FB
:103EAC000445C7E90021FFF739FF88F31188BFF3F8
:103EBC006F8F836898474FF02003EFF3118883F3DB
:103ECC001288BFF36F8FD9F80030DAF800009B1B13
:103EDC005045C446C9F80030CAD1D7E900219A1818
:103EEC0041EBE3730024C7E90023C9F80040FFF756
:103EFC00F5FE2146FEF7B4FB88F31188BFF36F8FF4
:103F0C00BDE8F84FFFF7DCBC8800002098030020C8
:103F1C00D001002010B54FF02003EFF3118483F390
:103F2C001288BFF36F8FFFF7CFFE064A0346D2E924
:103F3C000001181841EBE37184F31188BFF36F8F04
:103F4C0010BD00BFD0010020014800F038B800BF00
:103F5C00EF4D000070B403460C46DA8800681979FE
:103F6C002243056986682B6801248C4012F0010FEE
:103F7C0014BF2343A3432B60336870BC184703461C
:103F8C0001211B790068994083685B69184710B45C
:103F9C0003460068197904698268246801238B4000
:103FAC002342946918BF4FF00073A44608BF4FF02A
:103FBC00806310BC4FF0A0726047002070470FB4B4
:103FCC0007B504A951F8040B0191FCF7B7FA03B03B
:103FDC005DF804EB04B07047044608B5084611467A
:103FEC001A46A047FFF7F0FDFDF7B8FB038B13F063
:103FFC00070305D10368002B0CBF0020032070477A
:10400C00022B05D1408BB0FA80F04009800070473C
:10401C00012B05D10368002B0CBF00200520704735
:10402C000020704710B50C4600B111B96FF01500A7
:10403C0010BD081D00F095F80028F9D1A368032BDA
:10404C00F6D9F3E72DE9F0410D4607461946281D30
:10405C0090461E4600F096F8044638B13346424668
:10406C0029463846A446BDE8F0416047BDE8F081DA
:10407C0010B44FF02004EFF3118284F31288BFF3D5
:10408C006F8F416110BC0121FCF766BA38B50C4644
:10409C00054658B151B10B6843B14B6833B11C2282
:1040AC00002100F010F92C61002038BD6FF01500D4
:1040BC00FBE770B505460E46FFF7B4FF041E15DB93
:1040CC004FF02003EFF3118283F31288BFF36F8F4D
:1040DC006B8B2C8B4FF6FF718B4204F0070407D1CE
:1040EC0082F31188BFF36F8F6FF00A04204670BD06
:1040FC00022C0CD101336B8382F31188BFF36F8FC9
:10410C000023224631462846FFF79CFFEEE7062C9B
:10411C0014D8DFE804F004131313041A040000236A
:10412C0033606B683BB9C5E90066ACB9022128461F
:10413C00FCF712FADAE71E606E60F6E782F311887C
:10414C00BFF36F8F6FF00404D0E782F31188BFF3D5
:10415C006F8F6FF08504C9E782F31188BFF36F8FFF
:10416C00C4E7034658B1426802F00302012A03D0A7
:10417C00032A04D1026812B10020986070476FF0D6
:10418C00150070474268816002F00302032A4FF069
:10419C00000203460CBF006810465A6070472DE9B8
:1041AC00F84F9A46D3786F2B80460F461546A3F1ED
:1041BC00410B29D024D8582B0CBF10260A26DDF829
:1041CC0028903246002340463946FBF781FF092AE6
:1041DC00D4B21ED83034B045E4B277F1000709F8F8
:1041EC00014D01D3D14511D82B789B0605D5082E4E
:1041FC0015D1AB7843F00803AB704846BDE8F88F97
:10420C0003F0F703702BD7E70826D8E780460F4654
:10421C00D7E7BBF1190F94BF37345734DBE7102EB7
:10422C00EBD1AB7843F01003E6E72DE9F0410746FC
:10423C00884615461E461446B44205D30EB1601B83
:10424C0008E02378002BFAD014F8010B4146B8474C
:10425C000028F1DABDE8F081704700F08FBA014612
:10426C00006800F08BBA00210120FFF7F6BF08B5FB
:10427C00FCF7C0FFBDE80840FDF798B801390346CC
:10428C0011F8012F0AB91A70704703F8012BF7E7E0
:10429C00034600201A5C02B970470130FAE7034666
:1042AC0000201A5C0AB1884200D170470130F8E74F
:1042BC0010B5431E0A44914200D110BD11F8014BB8
:1042CC0003F8014FF7E7C9B202440346934200D109
:1042DC00704703F8011BF9E74FF0FF307047FDF70B
:1042EC0021BB062808D14FF080430122C3F80025DA
:1042FC00BFF34F8F20BFFDE77047002383F3118876
:10430C00BFF36F8F70470369C9B20C2201FB0233F4
:10431C00186C00F0070070474FF02003EFF3118288
:10432C0083F31288BFF36F8F036803F0C00343F06D
:10433C000203036082F31188BFF36F8F704770B56F
:10434C00C9B203694FF02004EFF3118584F312888E
:10435C00BFF36F8F0C2606FB0134246C14F0C004E1
:10436C0008D0A24206D085F31188BFF36F8F4FF0AF
:10437C00FF3070BD06FB013301221A6485F31188EE
:10438C00BFF36F8F436803EBC1035B689847002052
:10439C00EFE78022FFF7D3BFF8B5069F0469C9B2D7
:1043AC004FF02005EFF3118685F31288BFF36F8F62
:1043BC000C2505FB0144256C05F0070CBCF1010F25
:1043CC000CD1276486F31188BFF36F8FC4E90E23D9
:1043DC00436853F8313098470020F8BD05F0C0050C
:1043EC00AF4286F31188BFF36F8F0CBF6FF077006D
:1043FC004FF0FF30F1E713B580240094FFF7CCFFAA
:10440C0002B010BD10B40069CBB21C2403FB040035
:10441C00002110BC1047002000F08DB91046FFF7AA
:10442C00F5B843685B68D3F810350B600020704713
:10443C0043685B6802EA010021EA0201C3F808053F
:10444C00C3F80C150020704743685B680020C3F864
:10445C000815704743685B680020C3F80C1570475B
:10446C0043685A68D2F8043521EA03000B40C2F8BD
:10447C000805C2F80C350020704710B50369586860
:10448C00F8B1884219D19C6808685860A14200D1E3
:10449C009860002008602AB15A680A609A685960CE
:1044AC0002B99960002010E0814206D108682060B2
:1044BC0098688142EDD19C60EBE7044600680028C7
:1044CC00F2D1002AE8D16FF0150010BD30B5436869
:1044DC001360057A446804EBC504A34202D36FF061
:1044EC00010030BD5C798C4201D00833F0E700202C
:1044FC00F7E72DE9F04100EB810101274FF0A046D1
:10450C00814202D10020BDE8F081056805F07F03EF
:10451C00C5F343247F2B4FEA154508BF4FF0FF33FB
:10452C00192D6AD8DFE805F00D171C1F222E1F6904
:10453C006969693255696969696969696969586044
:10454C006366C2F80C3503F01F0507FA05F5C6F8CB
:10455C000855012502E0C2F814350025AC461CE0D4
:10456C00C2F80835EFE7C2F81035F6E7C2F808359F
:10457C00002503F01F0C07FA0CFCC6F80CC54FF015
:10458C00010C0AE0C2F80C350125F2E7C2F8083537
:10459C00002CE2D10025AC46062450F804EB0EF4B6
:1045AC000058B8F1000FCEF3C11E4FEA042418BF17
:1045BC004FF0000C03F01F0344EA8E0418BF0125D2
:1045CC0044EA0C0403F5E07344EA450446F823403E
:1045DC0096E7C2F80C35DBE7C2F860350568C5F321
:1045EC008035002DD0D0AEE7C2F86435F6E7C2F8BE
:1045FC006835F3E7C2F86C35F0E76FF0850082E7B9
:10460C0002690B46D2E9010183E8030000207047E0
:10461C0043681B68D3F88004C3F880047047436870
:10462C0002691B68D3F8100150B15269002012784E
:10463C000A70C3F81001D3F8102101221A607047D8
:10464C004FF0FF30704702680346D2F8580140B96A
:10465C005B689B0706D4D2F82001003818BF0120F4
:10466C0070470120704742681368D3F80413C905DA
:10467C0018D5D3F82011A9B14FF02000EFF3118118
:10468C0080F31288BFF36F8FD3F8200130B1002074
:10469C00C3F82001D3F820010120D86081F31188E0
:1046AC00BFF36F8F5268D20615D54FF02001EFF390
:1046BC00118281F31288BFF36F8FD3F8581111B1A7
:1046CC000021C3F800154FF48001C3F8081382F3DE
:1046DC001188BFF36F8F7047704700F150039B0038
:1046EC009BB203F1804303F5883300221A601B68E8
:1046FC00704708B50020FDF74DF94FF08053D3F803
:10470C003001421C04BF4FF0704393F8E00F831F3D
:10471C00584258417047004700F028B908B50020AE
:10472C00FCF742FD08B9FCF731FD4FF08043002245
:10473C00C3F8182508BDFEF767B900F01F0080000C
:10474C0000F1A040D0F8003723F4403343EA014392
:10475C00C0F800377047FEF789BD08B5FFF7FBFFBF
:10476C00002008BD704740B1C368587810F00100B4
:10477C001EBF1878B0FA80F040097047F8B50546AE
:10478C000E464FF02003EFF3118783F31288BFF32B
:10479C006F8FFFF719FA314604462846FFF7A9FF39
:1047AC0087F31188BFF36F8F2046BDE8F840FCF704
:1047BC00D5BFFFF788BDFFF77BBDEFF30580003851
:1047CC0018BF0120704708B5FCF7B6FBBDE80840E0
:1047DC00FFF782BFD0E9003213605A600023C0E9B2
:1047EC000033704708B5FFF7F5FF437B23F0020356
:1047FC0043730023836008BD38B504460D46FFF7AC
:10480C002FF8637B43F002036373E5B1A5602B685B
:10481C009D4209D16B68C4E900531C606C6012E0C6
:10482C006A689342F6D01B68002BF3D094F90E20E3
:10483C0093F90E108A42F3D09142F1DD5A68C4E923
:10484C00003214605C6038BD10B54FF02003EFF3FC
:10485C00118483F31288BFF36F8FFEF7CDFF84F3BF
:10486C001188BFF36F8F10BD38B504464FF020038D
:10487C00EFF3118583F31288BFF36F8F437B13F033
:10488C00280F0BD183680BB1FFF7ACFF637B51B9D9
:10489C0003F0FB0363732046FEF7AEFF85F311882C
:1048AC00BFF36F8F38BD03F0EB03F3E7012118382A
:1048BC00FFF7DABF38B54FF02003EFF3118583F320
:1048CC001288BFF36F8F0468A0420DD034B120461C
:1048DC00FFF788FF04F1180000F01EF885F311882B
:1048EC00BFF36F8F204638BD0024F7E7034620B98D
:1048FC00EFF305820AB9FCF79DBC83F31188BFF373
:10490C006F8F70474FF02003EFF3118083F3128801
:10491C00BFF36F8FFFF7EABF10B54FF02002EFF334
:10492C00118482F31288BFF36F8F03683BB1FFF7DA
:10493C00F5F9002084F31188BFF36F8F10BD6FF071
:10494C001500F7E710B54FF02003EFF3118483F354
:10495C001288BFF36F8FFFF7C1F984F31188BFF38F
:10496C006F8F10BD08B5FFF7D5FA08BD08B1FDF77C
:08497C0027B8704770470000E6
:084984008CB7FF7F0100000069
:10498C007119000000000000891A0000C4490000E1
:10499C006747000000000000011E0000DC49000019
:1049AC00F9200000F4490000E91C000000000000A0
:0849BC000D25000000000000C1
:1049C4004A4D0000204C0000304C000090000020B4
:1049D4004C020020504B0000674D00004C4C00007E
:1049E4005C4C000092000020A00200204A4B000012
:1049F400754D0000804C0000B44C00009400002071
:084A04000C000020444B0000EF
:104A0C00AD2B0000234700000000000073420000A3
:104A1C00F4490000734600000000000073420000DF
:104A2C000000000073420000000000007342000010
:104A3C001931000023470000000000007342000001
:104A4C0000000000734200000000000073420000F0
:104A5C0000000000734200000000000073420000E0
:104A6C0000000000734200000000000073420000D0
:104A7C0000000000734200000000000073420000C0
:104A8C0000000000734200000000000099250000A7
:104A9C0000000000734200000000000073420000A0
:104AAC000000000073420000000000007342000090
:104ABC000000000073420000000000007342000080
:104ACC000000000073420000000000007342000070
:104ADC000000000073420000000000007342000060
:104AEC000000000073420000000000007342000050
:104AFC000000000073420000000000007342000040
:104B0C00000000007342000000000000734200002F
:104B1C00000000007342000000000000734200001F
:104B2C00000000007342000000000000734200000F
:084B3C000000000073420000BC
:104B440000800080FF7F00800080FF7F0080008065
:024B5400FF7FE1
:024B5600FFFF5F
:104B5800B34D000000000000BE4D00000000000042
:104B6800CA4D000000000000194D000000000000C0
:104B7800594D000000000000934D000000000000A7
:104B8800334D000000000000EC4D00000000000064
:104B9800304D000000000000464D000000000000FD
:084BA800834D00000000000035
:104BB0000338FDD870470000DC49000010001100E8
:104BC000DC4900000F001100DC4900000E0011005C
:104BD000DC4900000D001100DC490000120001005A
:104BE000DC4900001100010000000020000000006E
:104BF00000000B0602000000FC4B0000000000005B
:104C0000374D000024000207000000203F4D000047
:104C10001E000B11111A0000E11900000000000035
:104C2000311B0000551A0000C91B0000234400007E
:104C3000951B00009F43000003440000000000009B
:104C4000134300000000000000000000FFFFFFFF12
:104C5000000000500000000000000000751E000071
:104C60002F4400003D440000554400006144000012
:104C70006D440000391D0000874400000000000062
:104C8000002000400200000000000000904C0000E6
:104C9000002000409C4C000001000000A44C0000DB
:104CA00004000000060000000800010005000200EA
:104CB000070003002B460000F52100001D46000000
:104CC0009D1F00000D460000F5FFFFFF8C4900000E
:104CD0008C490000BC490000C4490000C4490000E0
:104CE000C4490000627574746F6E207072657373CE
:104CF0006564202870696E202564290A0053657454
:104D000020757020627574746F6E20617420257335
:104D10002070696E2025640A0063627072696E7487
:104D2000665F7061636B61676500286E696C29005E
:104D3000706D006D707500464C4153485F300053F4
:104D400052414D5F3000736F6300636C6F636B4063
:104D5000343030303030303000636C6F636B5F6301
:104D60006F6E74726F6C006770696F4035303030F1
:104D70003030303000756172744034303030323051
:104D8000303000756172745F6E7266785F75617243
:104D9000746500666174616C5F6572726F720000A9
:104DA00000000001000000010100000101010100FC
:104DB0000000004E5246585F434C4F434B004E524A
:104DC00046585F4750494F5445004E5246585F5031
:104DD0005049005465726D696E616C005254540004
:104DE000534547474552006D61696E006F73002A55
:104DF0002A2A20426F6F74696E67205A657068793D
:104E000072204F53206275696C642076332E332EE6
:104E100039392D6E637331202A2A2A0A00000000D6
:104E2000C73F0000FFFFFFFFE54200000000000059
:104E300000C2010000010300000000009F030020E9
:104E40009E030020000000000000000000000000A1
:104E50000000000000000000000000000000000052
:104E60000000000000000000000000000000000042
:104E70000000000000000000000000000000000032
:104E80000000000000000000000000000000000022
:104E90000000000000000000FF0000000000000013
:104EA00000000000FFFF0F008800002088000020A5
:064EB000000000000000FC
:044EB60015E015E00E
:040000030000168D56
:00000001FF
